:020000040800F2
:10000000B80A002045010008590B00087B090008C8
:10001000C90A0008490400089B29000800000000E4
:100020000000000000000000000000002114000893
:1000300067040008000000001F12000835150008C2
:100040005F0100085F0100085F0100085F01000810
:100050005F0100085F0100085F0100085F01000800
:100060005F0100085F0100085F0100085F010008F0
:100070005F0100085F0100085F0100085F010008E0
:100080005F0100085F0100085F0100085F010008D0
:100090005F0100085F0100085F01000879050008A2
:1000A0005F0100085F0100085F0100085F010008B0
:1000B0005F0100085F0100085F0100085F010008A0
:1000C0005F0100085F0100085F0100085F01000890
:1000D0005F010008F92600085F0100084D270008AD
:1000E0005F0100085F0100085F0100085F01000870
:1000F0005F0100085F0100085F0100085F01000860
:100100005F0100085F0100085F0100085F0100084F
:100110005F0100085F0100085F0100085F0100083F
:100120005F0100085F0100085F0100085F0100082F
:10013000DFF80CD000F018F800480047E929000863
:10014000B80A00200648804706480047FEE7FEE759
:10015000FEE7FEE7FEE7FEE7FEE7FEE7FEE7FEE777
:100160009515000831010008064C074D06E0E068CF
:1001700040F0010394E8070098471034AC42F6D3EE
:10018000FFF7DAFF202D0008402D000800B587B0EA
:100190000121082001F054F80121880401F040F801
:1001A00006A800F0E2FB4FF48060ADF818001820BC
:1001B0008DF81B0003208DF81A0006A91E4800F0D8
:1001C000F7FA4FF40060ADF8180004208DF81B001A
:1001D00006A9194800F0ECFA02A802F0D2FB4FF48D
:1001E000E13002900020ADF80C00ADF80E00ADF843
:1001F0001000ADF814000C20ADF8120002A90F4851
:1002000002F04AFB27208DF8040002208DF805003B
:1002100001208DF806008DF8070001A800F0A4FC6D
:10022000012240F22551054802F010FB012103484C
:1002300002F0D6FA07B000BD000C014000480040B3
:1002400070B505460A480088401CC4B200BF094882
:1002500000888442FBD00848054909884554044871
:100260000480012240F22771044802F0EFFA70BDC9
:1002700022000020240000207801002000480040D7
:10028000FEB505460026002D06DA2D20FFF7D8FF23
:10029000681CC0F1010400E02C4600BF0A20B4FB3A
:1002A000F0F100FB114030303146721CD6B20DF82F
:1002B00001000A20B4FBF0F4002CEFD106E0711E1F
:1002C000C9B20E461DF80100FFF7BAFF002EF6D1A5
:1002D000FEBD10B5044603E014F8010BFFF7B0FFB4
:1002E00020780028F8D110BD2DE9F84F0746884640
:1002F0009146002000F00CF90446012000F008F9B6
:10030000054636480068A4EB000A35480068A5EBAE
:10031000000B324804603248056032A0FFF7D9FF75
:1003200000260BE00121B140394009B1312100E044
:1003300030210846FFF784FF701CC6B2052EF1DBA2
:100340002AA0FFF7C6FF4046FFF79AFF29A0FFF754
:10035000C0FF484602F019F90090FFF771FF27A08F
:10036000FFF7B7FF2046FFF78BFF26A0FFF7B1FF8F
:100370005046FFF785FF25A0FFF7ABFF2846FFF7A4
:100380007FFF24A0FFF7A5FF5846FFF779FF23A0C2
:10039000FFF79FFF00F0CEFF0090FFF771FF21A055
:1003A000FFF797FF00F0CCFF0090FFF769FF1FA059
:1003B000FFF78FFF002000F0E3FA0090FFF760FFE7
:1003C0001DA0FFF786FF012000F0DAFA0090FFF78A
:1003D00057FF1CA0FFF77DFFBDE8F88F000000204D
:1003E0000400002054524B3D0000000020455252B2
:1003F0003D000000204D4F44453D000020454E4348
:100400005F4C3D0020444C3D0000000020454E4321
:100410005F523D002044523D0000000020534552F1
:10042000564F3D002050554C53453D00204D4F54F4
:100430004F525F4C3D000000204D4F544F525F52D1
:100440003D0000000D0A000000BFFEE701466429E0
:1004500001DD6420704711F1640F02DA6FF0630070
:10046000F8E70846F6E77047014800687047000063
:1004700008000020044A116800BF034A1268521A9B
:100480008242FAD370470000080000202DE9F041B5
:1004900006463EB91848046818480068251A1748E7
:1004A00004601CE0012E17D1B00701F022FA0746C4
:1004B00013480088381A0FFA80F81148078011484D
:1004C000006840440F490860084604680E48006808
:1004D000251A0D48046002E00020BDE8F081B5F562
:1004E000004F02DB47F6FF70F7E715F5004F01DA22
:1004F0000648F2E728B2F0E738000020400000206C
:1005000044000020480000204C0000200080FFFF35
:10051000014611B9044800687047012902D1034817
:100520000068F9E70020F7E73800002048000020C5
:1005300008B50121052000F083FE0121084600F0E6
:100540006FFE684600F011FAC320ADF800004820A5
:100550008DF803006946064800F02AF900F0B2F869
:100560000449087000F0C2F800F082F808BD0000ED
:10057000000801403C00002010B50D48006800F064
:10058000C00000B910BDC02000F01AF800F09AF8C1
:1005900004460848007844EA80000749085607499D
:1005A00009680844054908600248047000BFE9E78B
:1005B000140401403C000020102D000838000020E9
:1005C00001490860704700001404014000212349DC
:1005D0008279002A3AD00A46126803689A430B4689
:1005E0001A600A1D126803689A430B1D1A6002798B
:1005F00011440A6803681A430A60184A08321268EC
:1006000003689A43154B08331A601A1D1268036871
:100610009A43124B0C331A604279102A0ED11A1FDA
:10062000126803681A430D4B08331A601A1D1268CA
:1006300003681A43094B0C331A600DE007494279ED
:1006400011440A6803681A430A6005E002791144FC
:100650000A6803689A430A6070470000000401407A
:100660000021016001710C214171002181717047ED
:100670000EB50621002000F07BF80721002000F0D5
:1006800077F801A8FFF7ECFFC020019000208DF85B
:10069000080010208DF8090001208DF80A0001A83B
:1006A000FFF794FF17208DF8000001208DF801005E
:1006B00000208DF8020001208DF80300684600F04C
:1006C00053FA0EBD10B500244021074800F044F94C
:1006D00008B144F002048021034800F03DF908B15C
:1006E00044F00104204610BD0008014000B587B069
:1006F00004A801F021FB0020ADF81000ADF81200B5
:100700004FF6FF70ADF814000020ADF8160004A9F4
:100710004FF0804001F0BEFA00231A4603214FF04B
:10072000804001F0C5F801A801F03CF90020ADF8C7
:100730000A000620ADF80C000020ADF804000120EE
:10074000ADF8080001A9800701F0D6F80420ADF843
:10075000040001A9000701F0CFF800214FF080400C
:1007600001F069FA0121880701F096F807B000BD91
:1007700030B500228B071C0F0F2303FA04F20B4B3A
:100780008C1053F824309343084C8D1044F82530D6
:1007900023468C1053F824308C07240F00FA04F4FD
:1007A0002343024C8D1044F8253030BD0800014031
:1007B0002DE9F041024600250026002000230024F8
:1007C000002791F803C00CF00F0591F803C00CF05E
:1007D000100CBCF1000F03D091F802C04CEA0505E3
:1007E00091F800C0BCF1000F31D0146800202BE05C
:1007F0004FF0010C0CFA00F3B1F800C00CEA03064C
:100800009E4220D183004FF00F0C0CFA03F7BC433B
:1008100005FA03FC4CEA040491F803C0BCF1280F6C
:1008200006D14FF0010C0CFA00FCC2F814C00AE02B
:1008300091F803C0BCF1480F05D14FF0010C0CFA40
:1008400000FCC2F810C0401C0828D1D31460B1F8D5
:1008500000C0BCF1FF0F34DD546800202EE000F131
:10086000080C4FF0010808FA0CF3B1F800C00CEACC
:1008700003069E4221D183004FF00F0C0CFA03F7C0
:10088000BC4305FA03FC4CEA040491F803C0BCF134
:10089000280F05D100F1080C08FA0CF8C2F81480F2
:1008A00091F803C0BCF1480F07D100F1080C4FF0DC
:1008B000010808FA0CF8C2F81080401C0828CED3B2
:1008C0005460BDE8F0810000F0B50A460023002422
:1008D0000021002500F00046B6F1004F02D11D4E68
:1008E000F16901E01B4E7168C0F3034583B200F467
:1008F0004016B6F5401F08D121F07061154E76689C
:1009000026F07066134F7E6012E000F48016B6F594
:10091000801F06D1032606FA05F4A14341F0706159
:1009200006E0460D360103FA06F6B14341F0706168
:1009300022B1460D360103FA06F6314300F00046B7
:10094000B6F1004F02D1034EF16101E0014E71603A
:10095000F0BD0000000001400246002093680B40FB
:100960000BB1012000E0002070474FF6FF710180BD
:10097000022181700421C170704700BFFEE70000B2
:100980000146022901DB00207047034800EB81008B
:10099000B0F90200F8E700001600002010B500F0E2
:1009A00095F800F02DF800F049F810BD70B5054637
:1009B0000C46022D00DB70BD642C00DD642414F1B4
:1009C000640F01DA6FF063040DB9604204B20548A8
:1009D00000EB850044802146284600F08FF800BFD8
:1009E000E9E700001600002070B504460D462146D8
:1009F0000020FFF7DBFF29460120FFF7D7FF70BD7E
:100A000008B50121092000F01BFC00214FF48050A3
:100A1000FFF75AFF6846FFF7A8FF18208DF803007C
:100A200003208DF802004FF47070ADF800006946A5
:100A30000148FFF7BDFE08BD000C014000B587B0BE
:100A40000121042000F0ECFB04A801F075F9472017
:100A5000ADF810000020ADF8120040F2E730ADF81C
:100A600014000020ADF816008DF8180004A91548F0
:100A700001F010F9684601F0CBF86020ADF80000F5
:100A80000120ADF802000020ADF80600ADF8080026
:100A900069460C4800F090FF69460A4800F0D8FF0C
:100AA0006946084801F026F86946064801F072F8E0
:100AB0000121044800F0E4FE0121024800F0ECFEB0
:100AC00007B000BD0008004000BFFEE704200A494F
:100AD0000870032048700220087101210648417106
:100AE000002005E00021044A02EB80025180401CF6
:100AF0000228F7DB70470000160000202DE9F041C6
:100B000006460D46134800EB8604284600F0FEFC1E
:100B10000746002D08DD2078394600F08BFE60780E
:100B2000002100F087FE12E0002D08DA2078002175
:100B300000F080FE6078394600F07CFE07E0207807
:100B4000002100F077FE6078002100F073FEBDE820
:100B5000F081000016000020704710B54FF4A0602F
:100B600000F03AF810BD000070B5002100230F22FC
:100B7000C47804B3154C246804F4E064C4F5E0645C
:100B8000210AC1F10403CA40447804FA03F18478CD
:100B90001440214309010E4C0678A155047804F055
:100BA0001F050124AC4005786D11AD0005F1E0256D
:100BB000C5F8004109E0047804F01F050124AC40A9
:100BC000044D0678761145F8264070BD0CED00E026
:100BD00000E400E080E100E002490143024A1160C4
:100BE000704700000000FA050CED00E000200CE06A
:100BF000002106E00022064B03EBC0135A544A1CA6
:100C0000D1B28029F6DB421CD0B20828F0DB704755
:100C1000B80200202DE9F04704460F4690464046B2
:100C200000F0B6F88146FE10082E01DA7A2C02DDBB
:100C30002046BDE8F087002508E019F805000949BD
:100C400001EBC61162198854681CC5B2052DF4DB8E
:100C50000021044800EBC612601D1154A01DC0B253
:100C6000E7E70000B8020020F0B503460C46E110AB
:100C7000122A03DA072901DA702B00DDF0BD00200B
:100C800016E00D4D05EB42152D5C0C4E06EBC11622
:100C90001F18F555084D05EB421600F11005765D5D
:100CA000064F4D1C07EBC5151F18EE55451CE8B245
:100CB0001028E6DB00BFE1E7712A0008B802002037
:100CC000F8B506460F4614460025B4F57A7F01DBD9
:100CD00040F2E73414F57A7F00DC164C002C06DA7B
:100CE0002D2239463046FFF795FF0646644200BF85
:100CF0000A2094FBF0F100FB11403030C2B22846CC
:100D0000691CCDB20DF800200A2094FBF0F40CB160
:100D1000042DEDD309E0681EC0B205461DF8002081
:100D200039463046FFF776FF0646002DF3DC3046A5
:100D3000F8BD000019FCFFFF2DE9F04105460E4605
:100D400017461C463A4631462846FFF7B9FF054686
:100D50002F2231462846FFF75DFF054622463146E1
:100D60002846FFF7ADFFBDE8F08170B505460E4699
:100D7000144606E014F8012B31462846FFF74AFFD7
:100D80000546207808B17A2DF4DD284670BD0000B4
:100D900001460846372932D00ADCA0F12D000A2886
:100DA0003DD2DFE800F01A3C1C1E20222426282A0F
:100DB0004D282CD008DC382823D0392823D03A28D5
:100DC00009D04C282BD120E0502822D0522822D004
:100DD000572824D121E0134870471348FCE71348F3
:100DE000FAE71348F8E71348F6E71348F4E713481F
:100DF000F2E71348F0E71348EEE71348ECE713482F
:100E0000EAE71348E8E71348E6E71348E4E713483E
:100E1000E2E71348E0E71348DEE71348DCE713484E
:100E2000DAE70000B62C0008BB2C0008C02C000834
:100E3000C52C0008CA2C0008CF2C0008D42C0008B0
:100E4000D92C0008DE2C0008E32C0008E82C000850
:100E5000ED2C0008F22C0008F72C0008FC2C0008F0
:100E6000012D0008062D00080B2D0008B12C0008EC
:100E700008B501210D2000F0E3F901214C48FFF7EE
:100E800023FD6846FFF771FD10208DF80300032055
:100E90008DF802003820ADF8000069464548FFF79C
:100EA00087FC4FF40040ADF8000069464248FFF768
:100EB0007FFC20203F491431086010200860C002E8
:100EC0003D491431086008203A4914310860142063
:100ED000FFF7D0FA08203749103108601420FFF7D7
:100EE000C9FAAE2000F094F9022000F091F9102028
:100EF00000F08EF9402000F08BF9B02000F088F966
:100F0000812000F085F9802000F082F9A12000F016
:100F10007FF9A62000F07CF9A82000F079F93F20A5
:100F200000F076F98D2000F073F9142000F070F9CC
:100F3000AD2000F06DF98B2000F06AF9302000F050
:100F400067F9C82000F064F9D32000F061F90020AF
:100F500000F05EF9D52000F05BF9802000F058F930
:100F6000D92000F055F91F2000F052F9DA2000F0E6
:100F70004FF9122000F04CF9DB2000F049F9402035
:100F800000F046F9A42000F043F9AF2000F040F94A
:100F9000A52000F03DF94FF4FA70FFF76BFAA4209A
:100FA00000F036F9FFF722FE00F008F808BD000057
:100FB00000023000000C01400008014070B5002420
:100FC00012E00021204600F03BF8002508E0084927
:100FD00001EBC411485D012100F0ECF8681CC5B2BA
:100FE000802DF4DB601CC4B2082CEADB70BD00006D
:100FF000B802002010B500210F48007800F020F85A
:1010000000240AE00D490C4A127801EBC211085D78
:10101000012100F0CFF8601CC4B2802CF2DB06483E
:101020000078401C0449087008460078082801DB55
:101030000020087010BD00002C000020B802002025
:1010400070B504460D46A81CC6B204F1B001C8B282
:1010500000F0DEF8102141EA261000F0D9F806F081
:101060000F0000F0D5F870BD2DE9FE4F0646894609
:1010700014461D46DDF830A04A480068A4EB000B7A
:1010800049480068281A02903746C8464548046017
:1010900045480560002F01DA784207B2B8F1000F29
:1010A00003DAC8F100000FFA80F8FFF79FFD002275
:1010B00011461046FFF7D8FD012200211020FFF74E
:1010C000D3FD022200212020FFF7CEFD37A204210C
:1010D0003220FFF74AFE43463A4604214A20FFF7F2
:1010E0002BFE062210210020FFF7BEFD0722102153
:1010F0000846FFF7B9FD082210212020FFF7B4FDB4
:101100004FF47A7095FBF0F100FB115001904FF411
:101110007A7094FBF0F100FB11400090024614211C
:101120003420019BFFF708FE092220210020FFF751
:101130009BFD0A2220211020FFF796FD0B22202183
:101140000846FFF791FD5A4624213420029BFFF701
:10115000F3FD0C2230210020FFF786FD0D22302107
:101160001020FFF781FD3A2234212420FFF752FDA1
:10117000BAF1000F0AD0102230212E20FFF774FDA3
:10118000112230213E20FFF76FFD09E00E223021B1
:101190002E20FFF769FD0F2230213E20FFF764FD6E
:1011A000BDE8FE8F300000203400002050574D3A3B
:1011B0000000000010B50A4622B14FF40043124C63
:1011C000236004E04FF400430F4C241D23600021F2
:1011D00014E020230D4C236000F080031BB110238A
:1011E000241F236002E01023084C23602023074CB7
:1011F000241F23604306180E4B1CD9B20829E8DBD4
:101200002023024C236010BD10080140140C014043
:1012100010B5044600212046FFF7CCFF10BD7047F3
:1012200029B1064AD2690243044BDA6104E0034A59
:10123000D2698243014BDA6170470000001002401E
:1012400029B1064A92690243044B9A6104E0034AB9
:1012500092698243014B9A6170470000001002407E
:1012600030B500210022002400232D4D6D6805F0CB
:101270000C0121B1042905D0082923D105E0294D0D
:10128000056022E0274D05601FE0254D6D6805F4DF
:101290007012234D6D6805F48034022505EB9242EF
:1012A0001CB9214D554305600BE01D4D6D6805F4DB
:1012B00000351DB11C4D5543056002E0194D5543E5
:1012C000056002E0174D056000BF00BF144D6D685A
:1012D00005F0F0010909154D6B5C0568DD404560BE
:1012E0000F4D6D6805F4E061090A104D6B5C4568AF
:1012F000DD4085600A4D6D6805F46051C90A0B4DEB
:101300006B5C4568DD40C560054D6D6805F4404186
:10131000890B074D6B5CC568B5FBF3F5056130BD06
:101320000010024000127A0000093D005000002029
:101330006000002001480078704700000C00002089
:1013400001480088704700000E00002000B589B0F9
:1013500001210920FFF774FF01210220FFF760FF40
:1013600008A8FFF702FB18208DF8230003208DF852
:1013700022000220ADF8200008A91948FFF718FA4A
:1013800005A800F0D9FC4720ADF814000020ADF806
:10139000160044F61F60ADF818000020ADF81A00E2
:1013A0008DF81C0005A90F4800F074FC01A800F09E
:1013B0002FFC6020ADF804000120ADF8060040F2DB
:1013C000DC50ADF80A000020ADF80C0001A905487A
:1013D00000F0E0FB0121034800F05EFA09B000BD17
:1013E000000C01400004004070B50446B42C00DD40
:1013F000B4244FF4FA606043B421B0FBF1F000F57F
:10140000FA750448047004490D80A9B2034800F03D
:101410000FFC70BD0C0000200E00002000040040F6
:10142000704710B500F002F810BD00000CB50020A8
:10143000019000903348006840F4803031490860E2
:1014400000BF3048006800F4003000900198401C54
:101450000190009818B90198B0F5A06FF1D1294812
:10146000006800F4003010B10120009001E000207D
:1014700000900098012843D12348006840F01000F4
:10148000214908600846006820F007000860084607
:10149000006840F0020008601A4840681949486036
:1014A0000846406848600846406840F480604860EC
:1014B0000846406820F47C1048600846406840F4C4
:1014C000E81048600846006840F08070086000BF7F
:1014D0000C48006800F000700028F9D00948406806
:1014E00020F00300074948600846406840F00200C9
:1014F000486000BF0348406800F00C000828F9D19C
:101500000CBD00000010024000200240014609B955
:1015100000207047002901DA484201B2642900DD49
:1015200064214FF47A7048436422B0FBF2F080B239
:10153000EFE7000002480068401C0149086070475E
:101540000800002010B5124800684FF47A71B0FB13
:10155000F1F4601EB0F1807F01D301200FE0601E26
:101560004FF0E02148610F214FF0FF3001F018FAF1
:1015700000204FF0E021886107200861002008B1B9
:1015800000BFFEE70F214FF0FF3001F009FA10BD58
:101590006400002010B51348006840F001001149B4
:1015A000086008464068104908400E4948600846EF
:1015B00000680E4908400B4908600846006820F49E
:1015C000802008600846406820F4FE0048604FF420
:1015D0001F008860FFF725FF4FF000600449086096
:1015E00010BD0000001002400000FFF8FFFFF6FEF3
:1015F00008ED00E0F0B50C46154600220021068CEF
:101600004FF6FE773E400684028B018C4FF60C7637
:1016100032407E1C06EA03162E433243104EB0427F
:101620000ED0104EB0420BD0B0F1804F08D00E4E0D
:10163000B04205D00D4EB04202D00D4EB04206D1A0
:101640004FF6FD76314044F00106314305E04FF698
:10165000F576314044F00106314302830184F0BD48
:10166000002C01400034014000040040000800400C
:10167000000C0040F0B50C46154600220021002663
:10168000078C4FF6EF7C07EA0C070784028B018C6E
:101690004FF6FF7707EA041640F6FF473A404FF649
:1016A000FF7707EA03373A434FF6FF7707EA052744
:1016B0003A43114FB8420ED0104FB8420BD0B0F1A0
:1016C000804F08D00E4FB84205D00E4FB84202D01E
:1016D0000D4FB84206D14FF6DF77394046F010077C
:1016E000394305E04FF65F77394044F0100739433E
:1016F00002830184F0BD0000002C01400034014051
:101700000004004000080040000C0040F0B50C460A
:101710001546002200210026078C4FF6FF6C07EAD1
:101720000C070784828B018C4FF6FF7707EA0426AB
:101730004FF60C773A404FF6FF7707EA03172F432F
:101740003A43114FB8420ED0104FB8420BD0B0F10F
:10175000804F08D00E4FB84205D00E4FB84202D08D
:101760000D4FB84206D14FF6FF57394046F4807707
:10177000394305E04FF2FF57394044F4807739434D
:1017800082830184F0BD0000002C01400034014040
:101790000004004000080040000C0040F0B50C467A
:1017A0001546002200210026078C4EF6FF7C07EA32
:1017B0000C070784828B018C4FF6FF7707EA04360B
:1017C00040F6FF473A404FF6FF7707EA05273A43CE
:1017D0004FF6FF7707EA03373A43114FB8420ED06E
:1017E000104FB8420BD0B0F1804F08D00E4FB84226
:1017F00005D00E4FB84202D00D4FB84206D14DF67B
:10180000FF77394046F48057394305E047F6FF57E4
:10181000394044F48057394382830184F0BD00008D
:10182000002C01400034014000040040000800404A
:10183000000C004070B504460D46012C06D0022C69
:1018400009D0032C0CD0042C14D10EE029460B48EF
:1018500000F0E8F90FE02946084800F0E5F90AE051
:101860002946064800F0E2F905E02946034800F061
:10187000DFF900E000BF00BF70BD000000080040BD
:1018800021B1028842F08002028004E002884FF613
:101890007F731A400280704721B1028842F0010232
:1018A000028004E002884FF6FE731A4002807047FF
:1018B000F0B50C4615461E46002100220023018982
:1018C000028B038C4FF6F877394021434FF6FC47E3
:1018D0003A4040F201173A434FF6DD773B404FF66E
:1018E000FF7707EA06172F433B43018102830384F6
:1018F000F0BD0146888C704770B505460C462448FB
:1019000085420ED0234885420BD0B5F1804F08D0D8
:101910002148854205D02148854202D02048854291
:1019200000D100E000BF208850B92389A2886188D7
:101930002846FFF75FFEE188284600F07EF925E0A3
:10194000208804280AD12389A28861882846FFF7C5
:1019500091FEE188284600F079F917E020880828F0
:101960000AD12389A28861882846FFF7CFFEE18843
:10197000284600F078F909E02389A2886188284682
:10198000FFF70CFFE188284600F076F970BD0000F3
:10199000002C0140003401400004004000080040D9
:1019A000000C004000210180418001218180002144
:1019B000C18001817047000070B50024002200231F
:1019C000058C4FF6FE7635400584028C8388048BA7
:1019D0004FF68F752C40B51E2C400D882C43751E7C
:1019E0002A400D892A434D882A43144DA8420BD022
:1019F000134DA84208D0134DA84205D0124DA8425D
:101A000002D0124DA84213D14FF6F7752A404D89E6
:101A10002A434FF6FB752A408D882A434FF6FF650F
:101A20002B404FF6FF552B408D892B43CD892B43FF
:101A300083800483CD888586028470BD002C01409C
:101A40000034014000400140004401400048014092
:101A500070B5002400220023058C4FF6EF76354048
:101A60000584028C8388048B48F6FF752C404FF662
:101A7000FF452C400D884FF6FF7606EA05252C43DE
:101A80004FF6DF752A400D8906EA05152A434D8871
:101A900006EA05152A43154DA84202D0144DA84266
:101AA0001DD14FF67F752A404D894FF6FF7606EA25
:101AB00005152A434FF6BF752A408D8806EA05159D
:101AC0002A434FF6FF352B404FF2FF752B408D898F
:101AD00006EA85052B43CD8906EA85052B438380DD
:101AE0000483CD880587028470BD0000002C01406E
:101AF0000034014070B5002400220023058C4FF60D
:101B0000FF6635400584028C8388848B4FF68F7581
:101B10002C404FF6FC752C400D882C434FF6FF559A
:101B20002A400D894FF6FF7606EA05252A434D889F
:101B300006EA05252A43154DA84202D0144DA842B5
:101B40001DD14FF2FF752A404D894FF6FF7606EA08
:101B500005252A434FF6FF352A408D8806EA0525DC
:101B60002A434EF6FF752B404DF6FF752B408D89AD
:101B700006EA05152B43CD8906EA05152B4383801C
:101B80008483CD888587028470BD0000002C0140CD
:101B90000034014070B5002200230024058C4EF66D
:101BA000FF7635400584038C8488828B48F6FF7568
:101BB0002A404FF6FF452A400D884FF6FF7606EA89
:101BC00005252A434DF6FF752B400D8906EA05359C
:101BD0002B434D8806EA05352B430B4DA84202D016
:101BE0000A4DA84208D14BF6FF752C408D894FF65F
:101BF000FF7606EA85152C4384808283CD88A0F881
:101C00004050038470BD0000002C014000340140AE
:101C10000021018041808180C180018141818181D9
:101C2000C1817047818670470187704781877047FF
:101C3000A0F84010704781847047028B4FF6F37311
:101C40001A400283028B0A4302837047028B4FF2D1
:101C5000FF331A400283028B4FF6FF7303EA01231E
:101C60001A4302837047828B4FF6F3731A408283C4
:101C7000828B0A4382837047828B4FF2FF331A4074
:101C80008283828B4FF6FF7303EA01231A43828318
:101C900070470000002202881D4B98420ED01D4B59
:101CA00098420BD0B0F1804F08D01B4B984205D022
:101CB0001A4B984202D01A4B984204D14FF68F73B8
:101CC0001A404B881A43174B984207D0164B98423C
:101CD00004D04FF6FF431A40CB881A4302808B880A
:101CE00083850B8803850A4B98420BD0094B984299
:101CF00008D00E4B984205D00D4B984202D00D4BA8
:101D0000984201D10B7A0386012383827047000039
:101D1000002C014000340140000400400008004055
:101D2000000C004000100040001400400040014042
:101D300000440140004801404FF6FF7181800021BE
:101D40000180C180418001727047000030B50146BA
:101D5000002401F01F011D48007840B91C480170A3
:101D6000417081700120194B1870084630BD184829
:101D7000184B1B78C15417480078401C0323B0FB54
:101D8000F3F503FB1500134B187000221AE0012530
:101D90009540E8B200230E4D2D7805400DB15D1C35
:101DA000EBB20B4D6D7805400DB15D1CEBB2084DEB
:101DB000AD7805400DB15D1CEBB2022B00DB044396
:101DC000501CC2B2052AE2DB2046CFE714000020F7
:101DD000100000201300002030B50546284600F012
:101DE0000FF80446002C05DB601D0A2190FBF1F082
:101DF00040B230BD601F0A2190FBF1F040B2F8E71D
:101E000010B503460024002200210BE00120884089
:101E1000184028B109484056204404B2501CC2B2B0
:101E2000481CC1B20529F1DB0AB9002010BD04EB42
:101E30008400400090FBF2F000B2F7E76C2A000843
:101E400008B501211020FFF7FBF96846FEF78DFD6C
:101E500048208DF8030042F20F00ADF800006946FB
:101E60000148FEF7A5FC08BD0010014010B5002494
:101E700001211248FEF770FD08B944F00104022167
:101E80000E48FEF769FD08B944F0020404210B482E
:101E9000FEF762FD08B944F0040408210748FEF784
:101EA0005BFD08B944F008044FF400510348FEF705
:101EB00053FD08B944F01004204610BD0010014045
:101EC0002DE9FE4F05460F460024A146029500204D
:101ED000019047F6FF70009005F01F0507F01F07FF
:101EE00015B11F2D00D017B92846BDE8FE8F384622
:101EF000FFF772FF82463EE04FF0000801E0601CF1
:101F0000C4B2052C04DA0120A04028400028F6D0F5
:101F1000052C00DB31E006E00120A040C0B240EA21
:101F20000808601CC4B2052C04DA0120A040284037
:101F30000028F1D109F1010000F0FF094046FFF748
:101F40005FFF8346ABEB0A0006B2002E01DA704257
:101F500006B20098864205DA0096CDF80880002087
:101F6000019007E00098864204D10298804501D094
:101F70000120019000BF052CBEDB00BFB9F1010FAD
:101F800003DD019808B13846AFE7B9F1010F01DD73
:101F90000298AAE72846A8E72DE9F04705460E462D
:101FA00017460020FEF772FA80460120FEF76EFA0F
:101FB000814633A000F095FB00240BE00121A140F5
:101FC000294009B1312100E03021084600F040FBF2
:101FD000601CC4B2052CF1DB2BA000F082FB304664
:101FE00000F056FB2AA000F07CFB384600F0CDFA4A
:101FF000824600F02DFB28A000F073FB0020FEF7C6
:1020000087FA824600F044FB25A000F06AFB4046B8
:1020100000F03EFB24A000F064FB0120FEF778FAFC
:10202000824600F035FB22A000F05BFB484600F042
:102030002FFB21A000F055FBFFF77CF9824600F052
:1020400027FB1FA000F04DFBFFF77AF9824600F056
:102050001FFB1DA000F045FB0020FEF791FC82460F
:1020600000F016FB1BA000F03CFB0120FEF788FCF3
:10207000824600F00DFB1AA000F033FBBDE8F087AC
:1020800054524B3D00000000204552523D000000DC
:10209000204D4F44453D000020454E435F4C3D00E0
:1020A00020444C3D0000000020454E435F523D005F
:1020B0002044523D0000000020534552564F3D0041
:1020C0002050554C53453D00204D4F544F525F4CCE
:1020D0003D000000204D4F544F525F523D00000024
:1020E0000D0A000070B505460C46002D09DA3720B0
:1020F00020802078FFF778F928214842FEF774FC09
:1021000009E0822020802078FFF76EF96FF0270128
:102110002820FEF769FC70BD2DE9F04F87B0064618
:102120008A4614461D46DDF840B02088304400B28F
:102130002080B4F90000502802DD5020208007E004
:10214000B4F9000010F1500F02DA6FF04F00208058
:102150004EB9B4F9001001EB4100C11700EB9171C9
:10216000891009B22180BAF80000301A00B2069036
:1021700006EB460080000A2190FBF1F706988000EC
:1021800090FBF1F00744B4F90000282190FBF1F036
:10219000384407B2232F01DD232704E017F1230F72
:1021A00001DA6FF02207AAF80060002E01DB30464A
:1021B00000E0704200B203900398052801DC5F2024
:1021C00000E048208046B5F90000404502DDA5F852
:1021D00000800DE0B5F90000404509DA2888801C30
:1021E00000B22880B5F90000404501DDA5F8008067
:1021F00007F15A000FFA80F9B9F1370F02DA4FF000
:10220000370904E0B9F1820F01DD4FF0820909EBD3
:102210004901BBF9000001EB4000052190FBF1F002
:1022200000B2ABF800009BF80000FFF7DDF807EB09
:102230008710642190FBF1F02988084400B20590D2
:1022400007EB8710642190FBF1F02988081A00B28F
:1022500004900498FEF7FAF802900598FEF7F6F855
:1022600001900299FEF7C0FB07B0BDE8F08F2DE9A1
:10227000F04F95B000250026002014900A201390FE
:10228000002012905F2011905A2010904FF0040B04
:1022900000274FF000084FF0000900200E900D902D
:1022A0000C900B90FEF7E0F80890FEF7DDF8079031
:1022B000FEF7DAF8069048E1FFF7D8FD0F900F9887
:1022C000FFF744FD04461F2C15D10B980D2803DAA7
:1022D0000B98401CC0B20B900B980D2809DB002115
:1022E0000846FEF781FB2A4631460F98FFF754FE59
:1022F0002CE1DA4606E000200B9059462046FFF715
:10230000DFFD824604F00300032805D104F0180025
:10231000182801D0012000E000200A9004F01800E5
:10232000182805D104F00300032801D0012000E0A3
:10233000002009900A9820B1032F03DA781CC7B255
:1023400000E00027099838B1B8F1030F06DA08F168
:10235000010000F0FF0801E04FF000083CB9B9F1BE
:10236000050F06DA09F1010000F0FF0901E04FF066
:102370000009BAF1000F08D01F2C06D0D3465046F2
:10238000FFF73EFD064606B11396C5B9032F05DBE0
:10239000012500200D900C90129076E0B8F1030F0B
:1023A00005DB022500200D900C9012906DE0B9F134
:1023B000050F6ADB032500200E90129065E0032DC7
:1023C00023D14CB11F2C07D00E98032806DA0E98A3
:1023D000401CC0B20E9001E000200E900E98032821
:1023E00053DB032F04DB012500200D900C904CE003
:1023F000B8F1030F04DB022500200D900C9044E09F
:1024000000251496482011903FE00D98142803DA17
:102410000D98401CC0B20D90B9F1050F03DB0325E8
:1024200000200E9031E0012D07D1B8F1030F04DB3D
:10243000022500200D900C9027E0022D06D1032FDD
:1024400004DB012500200D900C901EE0012D01D130
:102450000A9818B9022D04D1099810B100200C90E7
:1024600007E034B10C98052803DA0C98401CC0B280
:102470000C900D98142808DB0C98052805DB002526
:1024800014960020129048201190012D01D0022DA9
:1024900004D110A9284600F05DF813E0032D04D103
:1024A00010A91398FFF71EFE0CE01CB95846FFF761
:1024B000A7FC064610A811AB12AA14A9009030463A
:1024C000FFF72AFEFDF7D0FF0899401A322807D3FC
:1024D000FDF7CAFF08902A4631460F98FFF75CFDCA
:1024E000FDF7C2FF0799401A322807D3FDF7BCFF5A
:1024F00007902A4631460F98FDF7F6FEFDF7B4FF28
:102500000699401A64281BD3FDF7AEFF0690012000
:10251000FDF7FEFF05900020FDF7FAFF0490012073
:10252000FEF72EFA03900020FEF72AFA02900DB172
:10253000012000E00020009002A80FC8FEF794FDE3
:10254000FEF758FD0320FDF795FFB5E600BF15B077
:10255000BDE8F08F70B505460C46012D0AD1372035
:1025600020802078FEF740FF2D216FF01500FEF748
:102570003BFA09E0822020802078FEF735FF6FF0DB
:1025800015012D20FEF730FA70BD0146012904D057
:10259000022904D0032906D103E04C2070475220C1
:1025A000FCE75820FAE74E20F8E7000000B587B0B6
:1025B000012144F20400FEF743FE06A8FEF7D5F918
:1025C0004FF40070ADF8180018208DF81B000320A0
:1025D0008DF81A0006A91C48FEF7EAF84FF480604F
:1025E000ADF8180004208DF81B0006A91648FEF768
:1025F000DFF802A800F0C5F94FF4E13002900020A6
:10260000ADF80C00ADF80E00ADF81000ADF81400F8
:102610000C20ADF8120002A90C4800F03DF925206D
:102620008DF8040002208DF8050000208DF80600CA
:1026300001208DF8070001A8FEF796FA0121034852
:1026400000F0CEF807B000BD00080140003801409E
:1026500070B505460A480088401CC4B200BF09484E
:1026600000888442FBD0084805490988455404483D
:102670000480012240F22771044800F0E7F870BDA1
:102680001E000020200000207800002000380140BB
:10269000FEB505460026002D06DA2D20FFF7D8FFEF
:1026A000681CC0F1010400E02C4600BF0A20B4FB06
:1026B000F0F100FB114030303146721CD6B20DF8FB
:1026C00001000A20B4FBF0F4002CEFD106E0711EEB
:1026D000C9B20E461DF80100FFF7BAFF002EF6D171
:1026E000FEBD10B5044603E014F8010BFFF7B0FF80
:1026F00020780028F8D110BD10B540F227710F489E
:1027000000F07AF8C8B10E4800880E49098888425E
:102710000DD00D480A4A1288815C084800F02DF956
:1027200007480088401CC0B20549088005E0002227
:1027300040F22771014800F089F810BD00380140CF
:10274000200000201E0000207800002070B540F21C
:1027500025511C4800F050F898B11A4800F008F9CB
:10276000C5B219480088401C00F03F041748008893
:10277000844205D0164814490988455412480480FB
:1027800000BF40F227710F4800F036F8C8B1114879
:1027900000881149098888420DD010480D4A1288D6
:1027A000815C084800F0E9F80A480088401CC0B283
:1027B0000849088005E0002240F22771014800F036
:1027C00045F870BD00480040260000202800002089
:1027D0007802002024000020220000207801002040
:1027E00021B1828942F40052828104E082894DF64F
:1027F000FF731A408281704770B50246002400239F
:102800000025002040F66A16B14200D100BFC1F396
:10281000421501F01F03012606FA03F3012D02D130
:102820009689334006E0022D02D1168A334001E03A
:10283000968A33400C12012606FA04F416883440B6
:1028400013B10CB1012000E0002070BDF0B50346CB
:10285000002400260025002040F66A17B94200D166
:1028600000BF1846C1F3421401F01F06012707FA02
:1028700006F5012C01D10C3004E0022C01D11030FE
:1028800000E014301AB107682F43076002E00768C0
:10289000AF430760F0BD00002DE9F04786B0054664
:1028A0000E460024A24600BFA1460027B08900B111
:1028B00000BF2F462C8A4CF6FF700440F08804437A
:1028C0002C82AC894EF6F3100440B088318908435D
:1028D000718908430443AC81AC8A4FF6FF40044041
:1028E000B0890443AC8201A8FEF7BAFC1F488742B6
:1028F00002D1DDF810A001E0DDF80CA0A88900F4F9
:10290000004040B10AEBCA0000EB0A1031684900F0
:10291000B0FBF1F807E00AEBCA0000EB0A103168DF
:102920008900B0FBF1F86420B8FBF0F00401200945
:10293000642101FB1089A88900F4004040B13220D5
:1029400000EBC900B0FBF1F000F00700044308E021
:10295000322000EB09106421B0FBF1F000F00F0011
:1029600004432C8106B0BDE8F08700000038014028
:1029700001468888C0F308007047C1F308028280CE
:1029800070474FF41651016000218180C1800181A0
:102990000C21418100218181704700BFFEE70000CA
:1029A00010B5002804DB0A07130E054A135406E08D
:1029B0000A07140E034A00F00F031B1FD45410BD66
:1029C00000E400E018ED00E002E008C8121F08C1B2
:1029D000002AFAD170477047002001E001C1121FA0
:1029E000002AFBD17047000008B5FEF7B6F8FEF7E5
:1029F000A9FDFFF7DBFDFDF7C9FBFDF799FDFDF72D
:102A0000CDFFFEF7A3FCFFF71BFAFEF731FA0BA090
:102A1000FFF767FE0FA0FDF75CFC002003460246AF
:102A200001460090FEF720FBFEF7C8FA40F6B830EA
:102A3000FDF720FDFFF71BFC00BFFEE752454144B8
:102A40005920555341525431203131353230300DF7
:102A50000A00000052454144592055534152543315
:102A6000203131353230300D0A000000FEFF000108
:102A70000208049392969A92FA94939296FA02021A
:102A8000004040472424140CFF04042444241C0068
:102A90000020202020202021222C20202020202047
:102AA00000004020100C0300000001020418600028
:102AB000002030AC63300000FE22222222FE000003
:102AC00000226722121240407F424242427F404031
:102AD0000000000000000000FF08080808080808BF
:102AE000000000FF414141414141414141FF00009F
:102AF00000100C4424140405060404142444140C8B
:102B000000004040414141417F414141414040003E
:102B1000000000FE4040404000FF804020100800C0
:102B20000000007F20201010003F404040404078CF
:102B3000002030AC633000FC2425262424243C00F3
:102B40000022672212523807FF097F093F89FF00E0
:102B50000002C2F22E22E20001794141417F40C0D1
:102B60000001003F08081F00040404042444201F3F
:102B70000040404F494949CF70C04F5969494F40C3
:102B80000004047A4A494978000079494A4A7C0499
:102B9000000808080888780F0808080808080808C6
:102BA0000020104846414141417F41414141404060
:102BB0000008080808C8380F0808080808080808A6
:102BC0000008040201FF41414141414141FF000031
:102BD00000C8B88FE888C820900C030C90204040B3
:102BE00000081808FF0404003F44424140407000C0
:102BF0000000083000FF20202020FF2020222C2071
:102C00000004040201FF8040300E010618204080BD
:102C100000000484844424548F14244484840400D5
:102C200000413900003C4040424C404070040931B2
:102C300000000404F49494949F949494F404040085
:102C4000004040407F4A4A4A4A4A4A4A7F40404000
:102C5000002030AC632018809090FF90494A484093
:102C600000226722121212404020130C142241F855
:102C70000004442414047C0506047C041424440445
:102C80000000001D15151515151555955730000038
:102C900000404042CC0008E9AAB8A8A8AAE9080068
:102CA000000040201F20405F4A4A4A4A4A5F404095
:102CB0000000000000000036360000080808080880
:102CC00020100804023E5149453E00427F40004228
:102CD000615149462141454B311814127F10274557
:102CE0004545393C4A49493001710905033649498E
:102CF0004936064949291E7F404040407F020C0268
:102D00007F7F090909067F091929463F4038403F5E
:102D100000FF0100010000FFFF0000010001FF00B3
:102D2000402D00080000002078000000C82900089D
:102D3000B82D000878000020400A0000D8290008BB
:102D40000000000000000000000000005A00DC0548
:102D50000000000000000000000000000000000073
:102D60000000000000000000000000000000000063
:102D70000000000000000000000000000000000053
:102D80000000000000000000000000000000000043
:102D90000000000001020304010203040607080901
:102DA0000204060800A24A0400000000000000001F
:082DB0000102030406070809F3
:0400000508000131BD
:00000001FF
