:020000040800F2
:10000000580500204501000885080008A7060008DB
:10001000F50700088D010008151B0008000000000E
:100020000000000000000000000000001D0B0008A0
:10003000910100080000000019090008310C0008B7
:100040005F0100085F0100085F0100085F01000810
:100050005F0100085F0100085F0100085F01000800
:100060005F0100085F0100085F0100085F010008F0
:100070005F0100085F0100085F0100085F010008E0
:100080005F0100085F0100085F0100085F010008D0
:100090005F0100085F0100085F010008A502000879
:1000A0005F0100085F0100085F0100085F010008B0
:1000B0005F0100085F0100085F0100085F010008A0
:1000C0005F0100085F0100085F0100085F01000890
:1000D0005F010008111900085F0100085F010008B6
:1000E0005F0100085F0100085F0100085F01000870
:1000F0005F0100085F0100085F0100085F01000860
:100100005F0100085F0100085F0100085F0100084F
:100110005F0100085F0100085F0100085F0100083F
:100120005F0100085F0100085F0100085F0100082F
:10013000DFF80CD000F018F800480047611B0008F9
:10014000580500200648804706480047FEE7FEE7BE
:10015000FEE7FEE7FEE7FEE7FEE7FEE7FEE7FEE777
:10016000910C000831010008064C074D06E0E068DC
:1001700040F0010394E8070098471034AC42F6D3EE
:10018000FFF7DAFFC41B0008E41B000800BFFEE70E
:100190007047000001480068704700000000002020
:1001A000044A116800BF034A1268521A8242FAD305
:1001B00070470000000000202DE9F04106463EB9DE
:1001C0001848046818480068251A174804601CE09D
:1001D000012E17D1B00700F00AFF07461348008828
:1001E000381A0FFA80F81148078011480068404417
:1001F0000F490860084604680E480068251A0D4833
:10020000046002E00020BDE8F081B5F5004F02DB9C
:1002100047F6FF70F7E715F5004F01DA0648F2E7F9
:1002200028B2F0E7140000201C000020200000206D
:1002300024000020280000200080FFFF014611B9A3
:10024000044800687047012902D103480068F9E7B3
:100250000020F7E7140000202400002008B5012149
:10026000052000F06BFB0121084600F057FB6846B3
:1002700000F011FAC320ADF8000048208DF803000B
:100280006946064800F02AF900F0B2F804490870FF
:1002900000F0C2F800F082F808BD0000000801403C
:1002A0001800002010B50D48006800F0C00000B92B
:1002B00010BDC02000F01AF800F09AF80446084873
:1002C000007844EA8000074908560749096808444D
:1002D000054908600248047000BFE9E714040140C2
:1002E00018000020B11B000814000020014908601C
:1002F0007047000014040140002123498279002A3C
:100300003AD00A46126803689A430B461A600A1DDF
:10031000126803689A430B1D1A60027911440A6837
:1003200003681A430A60184A0832126803689A433D
:10033000154B08331A601A1D126803689A43124B52
:100340000C331A604279102A0ED11A1F1268036802
:100350001A430D4B08331A601A1D126803681A43BA
:10036000094B0C331A600DE00749427911440A68C1
:1003700003681A430A6005E0027911440A680368B9
:100380009A430A60704700000004014000210160A8
:1003900001710C2141710021817170470EB5062158
:1003A000002000F07BF80721002000F077F801A87A
:1003B000FFF7ECFFC020019000208DF8080010200E
:1003C0008DF8090001208DF80A0001A8FFF794FFBD
:1003D00017208DF8000001208DF8010000208DF815
:1003E000020001208DF80300684600F053FA0EBDAC
:1003F00010B500244021074800F044F908B144F04A
:1004000002048021034800F03DF908B144F00104E2
:10041000204610BD0008014000B587B004A801F0D7
:1004200009F80020ADF81000ADF812004FF6FF708B
:10043000ADF814000020ADF8160004A94FF080407C
:1004400000F0A6FF00231A4603214FF0804000F081
:10045000ADFD01A800F024FE0020ADF80A00062042
:10046000ADF80C000020ADF804000120ADF8080044
:1004700001A9800700F0BEFD0420ADF8040001A929
:10048000000700F0B7FD00214FF0804000F051FF61
:100490000121880700F07EFD07B000BD30B50022C5
:1004A0008B071C0F0F2303FA04F20B4B8C1053F82D
:1004B00024309343084C8D1044F8253023468C108B
:1004C00053F824308C07240F00FA04F42343024C21
:1004D0008D1044F8253030BD080001402DE9F04171
:1004E000024600250026002000230024002791F862
:1004F00003C00CF00F0591F803C00CF0100CBCF118
:10050000000F03D091F802C04CEA050591F800C035
:10051000BCF1000F31D0146800202BE04FF0010C2B
:100520000CFA00F3B1F800C00CEA03069E4220D199
:1005300083004FF00F0C0CFA03F7BC4305FA03FCE1
:100540004CEA040491F803C0BCF1280F06D14FF027
:10055000010C0CFA00FCC2F814C00AE091F803C0C8
:10056000BCF1480F05D14FF0010C0CFA00FCC2F8A9
:1005700010C0401C0828D1D31460B1F800C0BCF1F1
:10058000FF0F34DD546800202EE000F1080C4FF01E
:10059000010808FA0CF3B1F800C00CEA03069E4209
:1005A00021D183004FF00F0C0CFA03F7BC4305FA7E
:1005B00003FC4CEA040491F803C0BCF1280F05D1F8
:1005C00000F1080C08FA0CF8C2F8148091F803C086
:1005D000BCF1480F07D100F1080C4FF0010808FAF0
:1005E0000CF8C2F81080401C0828CED35460BDE837
:1005F000F0810000F0B50A46002300240021002508
:1006000000F00046B6F1004F02D11D4EF16901E045
:100610001B4E7168C0F3034583B200F44016B6F573
:10062000401F08D121F07061154E766826F0706683
:10063000134F7E6012E000F48016B6F5801F06D1DD
:10064000032606FA05F4A14341F0706106E0460D69
:10065000360103FA06F6B14341F0706122B1460D4E
:10066000360103FA06F6314300F00046B6F1004FBA
:1006700002D1034EF16101E0014E7160F0BD000056
:10068000000001400246002093680B400BB101209E
:1006900000E0002070474FF6FF7101800221817059
:1006A0000421C170704700BFFEE700000146022927
:1006B00001DB00207047034800EB8100B0F9020025
:1006C000F8E700000800002010B500F095F800F0F1
:1006D0002DF800F049F810BD70B505460C46022D06
:1006E00000DB70BD642C00DD642414F1640F01DABA
:1006F0006FF063040DB9604204B2054800EB850059
:1007000044802146284600F08FF800BFE9E700004A
:100710000800002070B504460D4621460020FFF772
:10072000DBFF29460120FFF7D7FF70BD08B5012187
:10073000092000F003F900214FF48050FFF75AFF21
:100740006846FFF7A8FF18208DF8030003208DF8F6
:1007500002004FF47070ADF8000069460148FFF7E1
:10076000BDFE08BD000C014000B587B0012104208A
:1007700000F0D4F804A800F05DFE4720ADF81000AA
:100780000020ADF8120040F2E730ADF81400002070
:10079000ADF816008DF8180004A9154800F0F8FD12
:1007A000684600F0B3FD6020ADF800000120ADF810
:1007B00002000020ADF80600ADF8080069460C48BC
:1007C00000F078FC69460A4800F0C0FC6946084819
:1007D00000F00EFD6946064800F05AFD012104486C
:1007E00000F0CCFB0121024800F0D4FB07B000BDB3
:1007F0000008004000BFFEE704200A4908700320FB
:10080000487002200871012106484171002005E06E
:100810000021044A02EB80025180401C0228F7DBD1
:1008200070470000080000202DE9F04106460D4603
:10083000134800EB8604284600F0E6F90746002D31
:1008400008DD2078394600F073FB6078002100F065
:100850006FFB12E0002D08DA2078002100F068FB21
:100860006078394600F064FB07E02078002100F052
:100870005FFB6078002100F05BFBBDE8F0810000C9
:1008800008000020704710B54FF4A06000F03AF85F
:1008900010BD000070B5002100230F22C47804B3FE
:1008A000154C246804F4E064C4F5E064210AC1F145
:1008B0000403CA40447804FA03F1847814402143C5
:1008C00009010E4C0678A155047804F01F05012497
:1008D000AC4005786D11AD0005F1E025C5F800418B
:1008E00009E0047804F01F050124AC40044D0678AB
:1008F000761145F8264070BD0CED00E000E400E004
:1009000080E100E002490143024A116070470000A3
:100910000000FA050CED00E07047000029B1064A1E
:10092000D2690243044BDA6104E0034AD26982438C
:10093000014BDA61704700000010024029B1064AFD
:1009400092690243044B9A6104E0034A926982432C
:10095000014B9A61704700000010024030B5002141
:100960000022002400232D4D6D6805F00C0121B1FB
:10097000042905D0082923D105E0294D056022E08E
:10098000274D05601FE0254D6D6805F47012234D5D
:100990006D6805F48034022505EB92421CB9214DA7
:1009A000554305600BE01D4D6D6805F400351DB124
:1009B0001C4D5543056002E0194D5543056002E0AA
:1009C000174D056000BF00BF144D6D6805F0F001C4
:1009D0000909154D6B5C0568DD4045600F4D6D687C
:1009E00005F4E061090A104D6B5C4568DD408560E7
:1009F0000A4D6D6805F46051C90A0B4D6B5C456882
:100A0000DD40C560054D6D6805F44041890B074D1B
:100A10006B5CC568B5FBF3F5056130BD00100240A5
:100A200000127A0000093D002C0000203C0000204C
:100A30000148007870470000040000200148008849
:100A4000704700000600002000B589B00121092090
:100A5000FFF774FF01210220FFF760FF08A8FFF7EE
:100A60001AFE18208DF8230003208DF822000220A2
:100A7000ADF8200008A91948FFF730FD05A800F0DF
:100A8000D9FC4720ADF814000020ADF8160044F65C
:100A90001F60ADF818000020ADF81A008DF81C009A
:100AA00005A90F4800F074FC01A800F02FFC60209D
:100AB000ADF804000120ADF8060040F2DC50ADF8BE
:100AC0000A000020ADF80C0001A9054800F0E0FB89
:100AD0000121034800F05EFA09B000BD000C01409E
:100AE0000004004070B50446B42C00DDB4244FF47B
:100AF000FA606043B421B0FBF1F000F5FA750448E8
:100B0000047004490D80A9B2034800F00FFC70BDC9
:100B1000040000200600002000040040704710B5CB
:100B200000F002F810BD00000CB50020019000900C
:100B30003348006840F480303149086000BF3048D5
:100B4000006800F4003000900198401C019000986B
:100B500018B90198B0F5A06FF1D12948006800F4E8
:100B6000003010B10120009001E0002000900098BA
:100B7000012843D12348006840F010002149086053
:100B80000846006820F0070008600846006840F04A
:100B9000020008601A4840681949486008464068E1
:100BA00048600846406840F48060486008464068F5
:100BB00020F47C1048600846406840F4E810486023
:100BC0000846006840F08070086000BF0C4800686C
:100BD00000F000700028F9D00948406820F00300B8
:100BE000074948600846406840F00200486000BF7E
:100BF0000348406800F00C000828F9D10CBD000043
:100C00000010024000200240014609B90020704750
:100C1000002901DA484201B2642900DD64214FF461
:100C20007A7048436422B0FBF2F080B2EFE7000034
:100C300002480068401C014908607047000000201D
:100C400010B5124800684FF47A71B0FBF1F4601EE1
:100C5000B0F1807F01D301200FE0601E4FF0E02152
:100C600048610F214FF0FF3000F056FF00204FF099
:100C7000E021886107200861002008B100BFFEE77D
:100C80000F214FF0FF3000F047FF10BD4000002063
:100C900010B51348006840F001001149086008468B
:100CA0004068104908400E494860084600680E49EF
:100CB00008400B4908600846006820F4802008605E
:100CC0000846406820F4FE0048604FF41F0088602A
:100CD000FFF725FF4FF000600449086010BD0000D9
:100CE000001002400000FFF8FFFFF6FE08ED00E0F4
:100CF000F0B50C46154600220021068C4FF6FE7713
:100D00003E400684028B018C4FF60C7632407E1CEE
:100D100006EA03162E433243104EB0420ED0104E58
:100D2000B0420BD0B0F1804F08D00E4EB04205D08B
:100D30000D4EB04202D00D4EB04206D14FF6FD76B8
:100D4000314044F00106314305E04FF6F57631407D
:100D500044F00106314302830184F0BD002C0140C0
:100D6000003401400004004000080040000C004036
:100D7000F0B50C461546002200210026078C4FF6E0
:100D8000EF7C07EA0C070784028B018C4FF6FF7794
:100D900007EA041640F6FF473A404FF6FF7707EAA6
:100DA00003373A434FF6FF7707EA05273A43114FD7
:100DB000B8420ED0104FB8420BD0B0F1804F08D0DF
:100DC0000E4FB84205D00E4FB84202D00D4FB84278
:100DD00006D14FF6DF77394046F01007394305E07A
:100DE0004FF65F77394044F010073943028301849E
:100DF000F0BD0000002C0140003401400004004020
:100E000000080040000C0040F0B50C4615460022DA
:100E100000210026078C4FF6FF6C07EA0C070784B9
:100E2000828B018C4FF6FF7707EA04264FF60C778A
:100E30003A404FF6FF7707EA03172F433A43114F23
:100E4000B8420ED0104FB8420BD0B0F1804F08D04E
:100E50000E4FB84205D00E4FB84202D00D4FB842E7
:100E600006D14FF6FF57394046F48077394305E005
:100E70004FF2FF57394044F480773943828301842D
:100E8000F0BD0000002C014000340140000400408F
:100E900000080040000C0040F0B50C46154600224A
:100EA00000210026078C4EF6FF7C07EA0C0707841A
:100EB000828B018C4FF6FF7707EA043640F6FF4736
:100EC0003A404FF6FF7707EA05273A434FF6FF7798
:100ED00007EA03373A43114FB8420ED0104FB842D9
:100EE0000BD0B0F1804F08D00E4FB84205D00E4F56
:100EF000B84202D00D4FB84206D14DF6FF773940C7
:100F000046F48057394305E047F6FF57394044F42B
:100F10008057394382830184F0BD0000002C0140DA
:100F2000003401400004004000080040000C004074
:100F300070B504460D46012C06D0022C09D0032CB6
:100F40000CD0042C14D10EE029460B4800F0E8F92F
:100F50000FE02946084800F0E5F90AE0294606486E
:100F600000F0E2F905E02946034800F0DFF900E06F
:100F700000BF00BF70BD00000008004021B1028822
:100F800042F08002028004E002884FF67F731A402C
:100F90000280704721B1028842F00102028004E021
:100FA00002884FF6FE731A4002807047F0B50C4677
:100FB00015461E460021002200230189028B038C66
:100FC0004FF6F877394021434FF6FC473A4040F25C
:100FD00001173A434FF6DD773B404FF6FF7707EABC
:100FE00006172F433B43018102830384F0BD014672
:100FF000888C704770B505460C46244885420ED053
:10100000234885420BD0B5F1804F08D02148854256
:1010100005D02148854202D02048854200D100E019
:1010200000BF208850B92389A28861882846FFF72D
:101030005FFEE188284600F07EF925E0208804283C
:101040000AD12389A28861882846FFF791FEE188AA
:10105000284600F079F917E0208808280AD123896A
:10106000A28861882846FFF7CFFEE188284600F075
:1010700078F909E02389A28861882846FFF70CFFE8
:10108000E188284600F076F970BD0000002C014090
:10109000003401400004004000080040000C004003
:1010A000002101804180012181800021C1800181D6
:1010B0007047000070B5002400220023058C4FF615
:1010C000FE7635400584028C8388048B4FF68F753D
:1010D0002C40B51E2C400D882C43751E2A400D89CE
:1010E0002A434D882A43144DA8420BD0134DA842E1
:1010F00008D0134DA84205D0124DA84202D0124D7F
:10110000A84213D14FF6F7752A404D892A434FF66E
:10111000FB752A408D882A434FF6FF652B404FF61A
:10112000FF552B408D892B43CD892B43838004832E
:10113000CD888586028470BD002C014000340140BA
:1011400000400140004401400048014070B50024C7
:1011500000220023058C4FF6EF7635400584028C83
:101160008388048B48F6FF752C404FF6FF452C40D2
:101170000D884FF6FF7606EA05252C434FF6DF75FE
:101180002A400D8906EA05152A434D8806EA051509
:101190002A43154DA84202D0144DA8421DD14FF646
:1011A0007F752A404D894FF6FF7606EA05152A43DA
:1011B0004FF6BF752A408D8806EA05152A434FF67B
:1011C000FF352B404FF2FF752B408D8906EA8505D0
:1011D0002B43CD8906EA85052B4383800483CD8884
:1011E0000587028470BD0000002C014000340140DE
:1011F00070B5002400220023058C4FF6FF663540B1
:101200000584028C8388848B4FF68F752C404FF6B3
:10121000FC752C400D882C434FF6FF552A400D8954
:101220004FF6FF7606EA05252A434D8806EA05258E
:101230002A43154DA84202D0144DA8421DD14FF2A9
:10124000FF752A404D894FF6FF7606EA05252A43A9
:101250004FF6FF352A408D8806EA05252A434EF6CB
:10126000FF752B404DF6FF752B408D8906EA05155D
:101270002B43CD8906EA05152B4383808483CD88D3
:101280008587028470BD0000002C014000340140BD
:1012900070B5002200230024058C4EF6FF76354001
:1012A0000584038C8488828B48F6FF752A404FF6AC
:1012B000FF452A400D884FF6FF7606EA05252A43AA
:1012C0004DF6FF752B400D8906EA05352B434D88F9
:1012D00006EA05352B430B4DA84202D00A4DA84221
:1012E00008D14BF6FF752C408D894FF6FF7606EA44
:1012F00085152C4384808283CD88A0F840500384D8
:1013000070BD0000002C014000340140002101802C
:1013100041808180C180018141818181C18170478B
:10132000818670470187704781877047A0F8401019
:10133000704781847047028B4FF6F3731A40028323
:10134000028B0A4302837047028B4FF2FF331A402D
:101350000283028B4FF6FF7303EA01231A430283D1
:101360007047828B4FF6F3731A408283828B0A4355
:1013700082837047828B4FF2FF331A408283828BC5
:101380004FF6FF7303EA01231A438283704700007C
:10139000002202881D4B98420ED01D4B98420BD064
:1013A000B0F1804F08D01B4B984205D01A4B9842A1
:1013B00002D01A4B984204D14FF68F731A404B88D3
:1013C0001A43174B984207D0164B984204D04FF659
:1013D000FF431A40CB881A4302808B8883850B8891
:1013E00003850A4B98420BD0094B984208D00E4B0C
:1013F000984205D00D4B984202D00D4B984201D136
:101400000B7A03860123838270470000002C014081
:10141000003401400004004000080040000C00407F
:101420000010004000140040004001400044014012
:10143000004801404FF6FF71818000210180C1808A
:1014400041800172704702460AB900207047002AA5
:1014500001DD104600E0504241B2012901DCCB0021
:101460000CE0022901DC0B0108E0032903DC01EB9D
:101470004100C30002E0C1EB01104300002A01DD7E
:10148000184600E0584200B2E0E7000070B500F0F6
:1014900033F806460025002400200BE0012181409E
:1014A000314029B10849095C29444DB2611C4CB254
:1014B000411CC8B20528F1DB0CB9002070BD95FBBA
:1014C000F4F040B2FAE70000AC1B000808B50121B7
:1014D0001020FFF733FA6846FFF7DDF848208DF853
:1014E000030042F20F00ADF8000069460148FEF724
:1014F000F5FF08BD0010014010B50024012112487D
:10150000FFF7C0F808B944F0010402210E48FFF7C4
:10151000B9F808B944F0020404210B48FFF7B2F807
:1015200008B944F0040408210748FFF7ABF808B9EC
:1015300044F008044FF400510348FFF7A3F808B93A
:1015400044F01004204610BD001001402DE9F04782
:1015500005460E460020FEF72FFE07460120FEF747
:101560002BFE80462EA000F0C8F900240BE00121DC
:10157000A140294009B1312100E03021084600F0A6
:1015800073F9601CC4B2052CF1DB27A000F0B5F99B
:10159000304600F089F926A000F0AFF90020FEF7F0
:1015A0004DFE814600F080F923A000F0A6F93846F0
:1015B00000F07AF922A000F0A0F90120FEF73EFE2B
:1015C000814600F071F920A000F097F9404600F044
:1015D0006BF91FA000F091F9FFF72AFA814600F09D
:1015E00063F91DA000F089F9FFF728FA814600F0A1
:1015F0005BF91BA000F081F90020FFF757F8814646
:1016000000F052F919A000F078F90120FFF74EF828
:10161000814600F049F918A000F06FF9BDE8F087A5
:1016200054524B3D00000000204552523D00000046
:1016300020454E435F4C3D0020444C3D00000000DF
:1016400020454E435F523D002044523D00000000C3
:1016500020534552564F3D002050554C53453D00B8
:10166000204D4F544F525F4C3D000000204D4F54D1
:101670004F525F523D0000000D0A00002DE9FE4F61
:101680000025AB464FF05A0AFEF784FD009094E027
:10169000FFF732FF04461F2C08D100210846FFF750
:1016A00039F829462046FFF751FF87E0AB46FFF7A0
:1016B000EDFE05462846FFF7C6FE0646A5EB0B00E5
:1016C00000EB4000800000B202900298304406B265
:1016D000002D01DD284600E06842032802DB2D20B2
:1016E000019001E03C20019006F15A000FFA80F9C8
:1016F000B9F11E0F01DA4FF01E09B9F1960F01DDA5
:101700004FF0960909EB490000EB4A00052190FBD8
:10171000F1F00FFA80FA0AF0FF00FFF7E3F904F0A6
:10172000010038B104F0100020B96FF02C074FF021
:101730002D081CE004F0100030B104F0010018B9CD
:101740002D276FF02C0812E006EB860000016421C3
:1017500090FBF1F10198084407B206EB8600000106
:10176000642190FBF1F10198401A0FFA80F8642F80
:1017700000DD642717F1640F01DA6FF06307B8F139
:10178000640F01DD4FF0640818F1640F01DA6FF0A7
:10179000630841463846FEF7BDFFFEF7FBFC0099A3
:1017A000401A322806D3FEF7F5FC00902946204661
:1017B000FFF7CCFE0220FEF7F3FC69E700BFBDE8AF
:1017C000FE8F000000B587B0012144F20400FFF74E
:1017D000B5F806A8FEF75FFF4FF40070ADF81800EB
:1017E00018208DF81B0003208DF81A0006A91C484C
:1017F000FEF774FE4FF48060ADF8180004208DF8F9
:101800001B0006A91648FEF769FE02A800F076F94B
:101810004FF4E13002900020ADF80C00ADF80E005E
:10182000ADF81000ADF814000C20ADF8120002A9BC
:101830000C4800F0F3F825208DF8040002208DF804
:10184000050000208DF8060001208DF8070001A892
:10185000FFF720F80121034800F084F807B000BD2D
:10186000000801400038014070B505460A4800886C
:10187000401CC4B200BF094800888442FBD008481D
:1018800005490988455404480480012240F2277123
:10189000044800F09DF870BD1000002012000020E8
:1018A0005400002000380140FEB505460026002DFA
:1018B00006DA2D20FFF7D8FF681CC0F1010400E014
:1018C0002C4600BF0A20B4FBF0F100FB1140303081
:1018D0003146721CD6B20DF801000A20B4FBF0F4B8
:1018E000002CEFD106E0711EC9B20E461DF80100B2
:1018F000FFF7BAFF002EF6D1FEBD10B5044603E097
:1019000014F8010BFFF7B0FF20780028F8D110BDC4
:1019100010B540F227710F4800F030F8C8B10E48FA
:1019200000880E49098888420DD00D480A4A12885D
:10193000815C084800F0DEF807480088401CC0B20F
:101940000549088005E0002240F22771014800F0B7
:101950003FF810BD003801401200002010000020A8
:101960005400002021B1828942F40052828104E0B7
:1019700082894DF6FF731A408281704770B5024626
:10198000002400230025002040F66A16B14200D151
:1019900000BFC1F3421501F01F03012606FA03F34D
:1019A000012D02D19689334006E0022D02D1168A1C
:1019B000334001E0968A33400C12012606FA04F403
:1019C0001688344013B10CB1012000E0002070BD36
:1019D000F0B50346002400260025002040F66A17D3
:1019E000B94200D100BF1846C1F3421401F01F06EE
:1019F000012707FA06F5012C01D10C3004E0022C76
:101A000001D1103000E014301AB107682F4307608D
:101A100002E00768AF430760F0BD00002DE9F04722
:101A200086B005460E460024A24600BFA146002708
:101A3000B08900B100BF2F462C8A4CF6FF700440DD
:101A4000F08804432C82AC894EF6F3100440B08831
:101A500031890843718908430443AC81AC8A4FF64D
:101A6000FF400440B0890443AC8201A8FEF776FF32
:101A70001F48874202D1DDF810A001E0DDF80CA07C
:101A8000A88900F4004040B10AEBCA0000EB0A103C
:101A900031684900B0FBF1F807E00AEBCA0000EB3F
:101AA0000A1031688900B0FBF1F86420B8FBF0F04F
:101AB00004012009642101FB1089A88900F4004079
:101AC00040B1322000EBC900B0FBF1F000F007009C
:101AD000044308E0322000EB09106421B0FBF1F070
:101AE00000F00F0004432C8106B0BDE8F087000031
:101AF00000380140C1F30802828070474FF416514C
:101B0000016000218180C18001810C21418100217F
:101B10008181704700BFFEE710B5002804DB0A078B
:101B2000130E054A135406E00A07140E034A00F088
:101B30000F031B1FD45410BD00E400E018ED00E0BB
:101B400002E008C8121F08C1002AFAD17047704786
:101B5000002001E001C1121F002AFBD170470000E4
:101B6000FEF791FEFFF76CF8FFF72CFEFEF776FB11
:101B7000FEF7AAFDFEF768FFFFF7A8FC05A0FFF738
:101B8000BCFE40F6B830FEF70BFBFFF777FD00BF59
:101B9000FEE700005245414459205553415254310B
:101BA000203131353230300D0A000000FCFE0002D9
:101BB0000400FF0100010000FFFF0000010001FF21
:101BC00000000000E41B000800000020540000009A
:101BD000401B0008381C00085400002004050000C9
:101BE000501B0008000000005A00DC050000000047
:101BF00000000000000000000000000000000000E5
:101C000000000000000000000000000000000000D4
:101C10000000000001020304010203040607080992
:101C20000204060800A24A040000000000000000B0
:081C3000010203040607080984
:0400000508000131BD
:00000001FF
